{
  "contractName": "QuoteFactory",
  "abi": [
    {
      "anonymous": false,
      "inputs": [
        {
          "indexed": true,
          "internalType": "string",
          "name": "symbol",
          "type": "string"
        },
        {
          "indexed": true,
          "internalType": "uint256",
          "name": "newPrice",
          "type": "uint256"
        }
      ],
      "name": "AddPrice",
      "type": "event"
    },
    {
      "anonymous": false,
      "inputs": [
        {
          "indexed": true,
          "internalType": "address",
          "name": "quoteAddr",
          "type": "address"
        }
      ],
      "name": "AddQuote",
      "type": "event"
    },
    {
      "anonymous": false,
      "inputs": [
        {
          "indexed": true,
          "internalType": "string",
          "name": "symbol",
          "type": "string"
        },
        {
          "indexed": true,
          "internalType": "uint256",
          "name": "blockIndex",
          "type": "uint256"
        }
      ],
      "name": "DelPrice",
      "type": "event"
    },
    {
      "anonymous": false,
      "inputs": [
        {
          "indexed": true,
          "internalType": "address",
          "name": "previousOwner",
          "type": "address"
        },
        {
          "indexed": true,
          "internalType": "address",
          "name": "newOwner",
          "type": "address"
        }
      ],
      "name": "OwnershipTransferred",
      "type": "event"
    },
    {
      "inputs": [],
      "name": "owner",
      "outputs": [
        {
          "internalType": "address",
          "name": "",
          "type": "address"
        }
      ],
      "stateMutability": "view",
      "type": "function",
      "constant": true
    },
    {
      "inputs": [],
      "name": "renounceOwnership",
      "outputs": [],
      "stateMutability": "nonpayable",
      "type": "function"
    },
    {
      "inputs": [
        {
          "internalType": "address",
          "name": "newOwner",
          "type": "address"
        }
      ],
      "name": "transferOwnership",
      "outputs": [],
      "stateMutability": "nonpayable",
      "type": "function"
    },
    {
      "inputs": [
        {
          "internalType": "string",
          "name": "_symbol",
          "type": "string"
        }
      ],
      "name": "addQuote",
      "outputs": [
        {
          "internalType": "address",
          "name": "quoteAddr",
          "type": "address"
        }
      ],
      "stateMutability": "nonpayable",
      "type": "function"
    },
    {
      "inputs": [
        {
          "internalType": "string",
          "name": "_symbol",
          "type": "string"
        },
        {
          "internalType": "uint256[]",
          "name": "price",
          "type": "uint256[]"
        }
      ],
      "name": "addPrice",
      "outputs": [],
      "stateMutability": "nonpayable",
      "type": "function"
    },
    {
      "inputs": [
        {
          "internalType": "string",
          "name": "_symbol",
          "type": "string"
        },
        {
          "internalType": "uint256",
          "name": "blockIndex",
          "type": "uint256"
        }
      ],
      "name": "delPrice",
      "outputs": [],
      "stateMutability": "nonpayable",
      "type": "function"
    },
    {
      "inputs": [
        {
          "internalType": "string",
          "name": "_symbol",
          "type": "string"
        }
      ],
      "name": "getNewPrice",
      "outputs": [
        {
          "internalType": "uint256",
          "name": "blockIndex",
          "type": "uint256"
        },
        {
          "internalType": "uint256",
          "name": "newPrice",
          "type": "uint256"
        },
        {
          "internalType": "uint256",
          "name": "priceTime",
          "type": "uint256"
        }
      ],
      "stateMutability": "view",
      "type": "function",
      "constant": true
    },
    {
      "inputs": [
        {
          "internalType": "string",
          "name": "_symbol",
          "type": "string"
        },
        {
          "internalType": "uint256",
          "name": "_blockIndex",
          "type": "uint256"
        }
      ],
      "name": "getLastPrice",
      "outputs": [
        {
          "internalType": "uint256",
          "name": "blockIndex",
          "type": "uint256"
        },
        {
          "internalType": "uint256",
          "name": "newPrice",
          "type": "uint256"
        },
        {
          "internalType": "uint256",
          "name": "priceTime",
          "type": "uint256"
        }
      ],
      "stateMutability": "view",
      "type": "function",
      "constant": true
    },
    {
      "inputs": [
        {
          "internalType": "string",
          "name": "_symbol",
          "type": "string"
        }
      ],
      "name": "getAddr",
      "outputs": [
        {
          "internalType": "address",
          "name": "quoteAddr",
          "type": "address"
        }
      ],
      "stateMutability": "view",
      "type": "function",
      "constant": true
    },
    {
      "inputs": [],
      "name": "symbolLength",
      "outputs": [
        {
          "internalType": "uint256",
          "name": "",
          "type": "uint256"
        }
      ],
      "stateMutability": "view",
      "type": "function",
      "constant": true
    },
    {
      "inputs": [
        {
          "internalType": "uint256",
          "name": "_index",
          "type": "uint256"
        }
      ],
      "name": "getSymbol",
      "outputs": [
        {
          "internalType": "string",
          "name": "",
          "type": "string"
        }
      ],
      "stateMutability": "view",
      "type": "function",
      "constant": true
    },
    {
      "inputs": [],
      "name": "symbols",
      "outputs": [
        {
          "internalType": "string[]",
          "name": "",
          "type": "string[]"
        }
      ],
      "stateMutability": "view",
      "type": "function",
      "constant": true
    }
  ],
  "bytecode": "0x608060405234801561001057600080fd5b5060006100216100c460201b60201c565b9050806000806101000a81548173ffffffffffffffffffffffffffffffffffffffff021916908373ffffffffffffffffffffffffffffffffffffffff1602179055508073ffffffffffffffffffffffffffffffffffffffff16600073ffffffffffffffffffffffffffffffffffffffff167f8be0079c531659141344cd1fd0a4f28419497f9722a3daafe3b4186f6b6457e060405160405180910390a3506100cc565b600033905090565b612fe0806100db6000396000f3fe60806040523480156200001157600080fd5b5060043610620000c45760003560e01c8063d053dd6e116200007b578063d053dd6e146200018f578063d4a06b8714620001c5578063d502db9714620001fd578063e8084a871462000233578063f2fde38b146200026b578063fc0fc6db146200028b57620000c4565b806307039ff914620000c95780633c50bcd714620000eb5780636418413c146200010b578063715018a61462000141578063849562bd146200014d5780638da5cb5b146200016d575b600080fd5b620000d3620002ad565b604051620000e29190620017c1565b60405180910390f35b620001096004803603810190620001039190620012ad565b6200039c565b005b6200012960048036038101906200012391906200137a565b62000525565b60405162000138919062001809565b60405180910390f35b6200014b620005e3565b005b6200016b600480360381019062000165919062001320565b6200073b565b005b62000177620008c0565b60405162000186919062001787565b60405180910390f35b620001ad6004803603810190620001a7919062001268565b620008e9565b604051620001bc919062001787565b60405180910390f35b620001e36004803603810190620001dd919062001320565b62000c5f565b604051620001f493929190620018d2565b60405180910390f35b6200021b600480360381019062000215919062001268565b62000d15565b6040516200022a919062001787565b60405180910390f35b6200025160048036038101906200024b919062001268565b62000dd2565b6040516200026293929190620018d2565b60405180910390f35b6200028960048036038101906200028391906200123c565b62000e7b565b005b6200029562001045565b604051620002a49190620018b5565b60405180910390f35b60606002805480602002602001604051908101604052809291908181526020016000905b8282101562000393578382906000526020600020018054600181600116156101000203166002900480601f0160208091040260200160405190810160405280929190818152602001828054600181600116156101000203166002900480156200037e5780601f1062000352576101008083540402835291602001916200037e565b820191906000526020600020905b8154815290600101906020018083116200036057829003601f168201915b505050505081526020019060010190620002d1565b50505050905090565b620003a662001052565b73ffffffffffffffffffffffffffffffffffffffff1660008054906101000a900473ffffffffffffffffffffffffffffffffffffffff1673ffffffffffffffffffffffffffffffffffffffff161462000436576040517f08c379a00000000000000000000000000000000000000000000000000000000081526004016200042d9062001893565b60405180910390fd5b6000620004438362000d15565b905060008173ffffffffffffffffffffffffffffffffffffffff1663f6ed06a4846040518263ffffffff1660e01b8152600401620004829190620017e5565b602060405180830381600087803b1580156200049d57600080fd5b505af1158015620004b2573d6000803e3d6000fd5b505050506040513d601f19601f82011682018060405250810190620004d89190620013a6565b90508084604051620004eb91906200176e565b60405180910390207f23239e357550227dee169e4dc7ea1e83fee2e773c179541e55254b1bd8c89c8360405160405180910390a350505050565b6060600282815481106200053557fe5b906000526020600020018054600181600116156101000203166002900480601f016020809104026020016040519081016040528092919081815260200182805460018160011615610100020316600290048015620005d75780601f10620005ab57610100808354040283529160200191620005d7565b820191906000526020600020905b815481529060010190602001808311620005b957829003601f168201915b50505050509050919050565b620005ed62001052565b73ffffffffffffffffffffffffffffffffffffffff1660008054906101000a900473ffffffffffffffffffffffffffffffffffffffff1673ffffffffffffffffffffffffffffffffffffffff16146200067d576040517f08c379a0000000000000000000000000000000000000000000000000000000008152600401620006749062001893565b60405180910390fd5b600073ffffffffffffffffffffffffffffffffffffffff1660008054906101000a900473ffffffffffffffffffffffffffffffffffffffff1673ffffffffffffffffffffffffffffffffffffffff167f8be0079c531659141344cd1fd0a4f28419497f9722a3daafe3b4186f6b6457e060405160405180910390a360008060006101000a81548173ffffffffffffffffffffffffffffffffffffffff021916908373ffffffffffffffffffffffffffffffffffffffff160217905550565b6200074562001052565b73ffffffffffffffffffffffffffffffffffffffff1660008054906101000a900473ffffffffffffffffffffffffffffffffffffffff1673ffffffffffffffffffffffffffffffffffffffff1614620007d5576040517f08c379a0000000000000000000000000000000000000000000000000000000008152600401620007cc9062001893565b60405180910390fd5b6000620007e28362000d15565b90508073ffffffffffffffffffffffffffffffffffffffff1663aecaa316836040518263ffffffff1660e01b81526004016200081f9190620018b5565b602060405180830381600087803b1580156200083a57600080fd5b505af11580156200084f573d6000803e3d6000fd5b505050506040513d601f19601f82011682018060405250810190620008759190620013a6565b5081836040516200088791906200176e565b60405180910390207fbd5fbdde228050934cb50cbee0dd68a95f2a21c04959d430e30c3be3b236730d60405160405180910390a3505050565b60008060009054906101000a900473ffffffffffffffffffffffffffffffffffffffff16905090565b6000620008f562001052565b73ffffffffffffffffffffffffffffffffffffffff1660008054906101000a900473ffffffffffffffffffffffffffffffffffffffff1673ffffffffffffffffffffffffffffffffffffffff161462000985576040517f08c379a00000000000000000000000000000000000000000000000000000000081526004016200097c9062001893565b60405180910390fd5b600073ffffffffffffffffffffffffffffffffffffffff16600183604051620009af91906200176e565b908152602001604051809103902060009054906101000a900473ffffffffffffffffffffffffffffffffffffffff1673ffffffffffffffffffffffffffffffffffffffff161462000a37576040517f08c379a000000000000000000000000000000000000000000000000000000000815260040162000a2e9062001871565b60405180910390fd5b60606040518060200162000a4b906200105a565b6020820181038252601f19601f82011660405250905060008360405160200162000a7691906200176e565b604051602081830303815290604052805190602001209050808251602084016000f592508273ffffffffffffffffffffffffffffffffffffffff1663f62d1888856040518263ffffffff1660e01b815260040162000ad5919062001809565b600060405180830381600087803b15801562000af057600080fd5b505af115801562000b05573d6000803e3d6000fd5b505050508273ffffffffffffffffffffffffffffffffffffffff1663f2fde38b336040518263ffffffff1660e01b815260040162000b449190620017a4565b600060405180830381600087803b15801562000b5f57600080fd5b505af115801562000b74573d6000803e3d6000fd5b505050508260018560405162000b8b91906200176e565b908152602001604051809103902060006101000a81548173ffffffffffffffffffffffffffffffffffffffff021916908373ffffffffffffffffffffffffffffffffffffffff16021790555060028490806001815401808255809150506001900390600052602060002001600090919091909150908051906020019062000c1492919062001068565b508273ffffffffffffffffffffffffffffffffffffffff167f8d8c05992df8d984daec5ec2f26c66798cff86409636b8e53d3b9ecd165b12af60405160405180910390a25050919050565b60008060008062000c708662000d15565b90508073ffffffffffffffffffffffffffffffffffffffff166365fa2f7f866040518263ffffffff1660e01b815260040162000cad9190620018b5565b60606040518083038186803b15801562000cc657600080fd5b505afa15801562000cdb573d6000803e3d6000fd5b505050506040513d601f19601f8201168201806040525081019062000d019190620013d2565b809450819550829650505050509250925092565b600060018260405162000d2991906200176e565b908152602001604051809103902060009054906101000a900473ffffffffffffffffffffffffffffffffffffffff169050600073ffffffffffffffffffffffffffffffffffffffff168173ffffffffffffffffffffffffffffffffffffffff16141562000dcd576040517f08c379a000000000000000000000000000000000000000000000000000000000815260040162000dc4906200184f565b60405180910390fd5b919050565b60008060008062000de38562000d15565b90508073ffffffffffffffffffffffffffffffffffffffff1663a7b08aec6040518163ffffffff1660e01b815260040160606040518083038186803b15801562000e2c57600080fd5b505afa15801562000e41573d6000803e3d6000fd5b505050506040513d601f19601f8201168201806040525081019062000e679190620013d2565b809450819550829650505050509193909250565b62000e8562001052565b73ffffffffffffffffffffffffffffffffffffffff1660008054906101000a900473ffffffffffffffffffffffffffffffffffffffff1673ffffffffffffffffffffffffffffffffffffffff161462000f15576040517f08c379a000000000000000000000000000000000000000000000000000000000815260040162000f0c9062001893565b60405180910390fd5b600073ffffffffffffffffffffffffffffffffffffffff168173ffffffffffffffffffffffffffffffffffffffff16141562000f88576040517f08c379a000000000000000000000000000000000000000000000000000000000815260040162000f7f906200182d565b60405180910390fd5b8073ffffffffffffffffffffffffffffffffffffffff1660008054906101000a900473ffffffffffffffffffffffffffffffffffffffff1673ffffffffffffffffffffffffffffffffffffffff167f8be0079c531659141344cd1fd0a4f28419497f9722a3daafe3b4186f6b6457e060405160405180910390a3806000806101000a81548173ffffffffffffffffffffffffffffffffffffffff021916908373ffffffffffffffffffffffffffffffffffffffff16021790555050565b6000600280549050905090565b600033905090565b6114698062001b4283390190565b828054600181600116156101000203166002900490600052602060002090601f016020900481019282601f10620010ab57805160ff1916838001178555620010dc565b82800160010185558215620010dc579182015b82811115620010db578251825591602001919060010190620010be565b5b509050620010eb9190620010ef565b5090565b5b808211156200110a576000816000905550600101620010f0565b5090565b6000813590506200111f8162001b0d565b92915050565b600082601f8301126200113757600080fd5b81356200114e62001148826200193d565b6200190f565b915081818352602084019350602081019050838560208402820111156200117457600080fd5b60005b83811015620011a857816200118d88826200120e565b84526020840193506020830192505060018101905062001177565b5050505092915050565b600082601f830112620011c457600080fd5b8135620011db620011d58262001966565b6200190f565b91508082526020830160208301858383011115620011f857600080fd5b6200120583828462001ab7565b50505092915050565b6000813590506200121f8162001b27565b92915050565b600081519050620012368162001b27565b92915050565b6000602082840312156200124f57600080fd5b60006200125f848285016200110e565b91505092915050565b6000602082840312156200127b57600080fd5b600082013567ffffffffffffffff8111156200129657600080fd5b620012a484828501620011b2565b91505092915050565b60008060408385031215620012c157600080fd5b600083013567ffffffffffffffff811115620012dc57600080fd5b620012ea85828601620011b2565b925050602083013567ffffffffffffffff8111156200130857600080fd5b620013168582860162001125565b9150509250929050565b600080604083850312156200133457600080fd5b600083013567ffffffffffffffff8111156200134f57600080fd5b6200135d85828601620011b2565b925050602062001370858286016200120e565b9150509250929050565b6000602082840312156200138d57600080fd5b60006200139d848285016200120e565b91505092915050565b600060208284031215620013b957600080fd5b6000620013c98482850162001225565b91505092915050565b600080600060608486031215620013e857600080fd5b6000620013f88682870162001225565b93505060206200140b8682870162001225565b92505060406200141e8682870162001225565b9150509250925092565b600062001436838362001565565b905092915050565b60006200144c83836200174c565b60208301905092915050565b620014638162001a7b565b82525050565b620014748162001a3d565b82525050565b60006200148782620019b3565b620014938185620019ee565b935083602082028501620014a78562001993565b8060005b85811015620014e95784840389528151620014c7858262001428565b9450620014d483620019d4565b925060208a01995050600181019050620014ab565b50829750879550505050505092915050565b60006200150882620019be565b620015148185620019ff565b93506200152183620019a3565b8060005b83811015620015585781516200153c88826200143e565b97506200154983620019e1565b92505060018101905062001525565b5085935050505092915050565b60006200157282620019c9565b6200157e818562001a10565b93506200159081856020860162001ac6565b6200159b8162001afc565b840191505092915050565b6000620015b382620019c9565b620015bf818562001a21565b9350620015d181856020860162001ac6565b620015dc8162001afc565b840191505092915050565b6000620015f482620019c9565b62001600818562001a32565b93506200161281856020860162001ac6565b80840191505092915050565b60006200162d60268362001a21565b91507f4f776e61626c653a206e6577206f776e657220697320746865207a65726f206160008301527f64647265737300000000000000000000000000000000000000000000000000006020830152604082019050919050565b60006200169560198362001a21565b91507f676574416464723a2051756f74655f4e4f545f455849535453000000000000006000830152602082019050919050565b6000620016d760168362001a21565b91507f61646451756f74653a2051756f74655f455849535453000000000000000000006000830152602082019050919050565b60006200171960208362001a21565b91507f4f776e61626c653a2063616c6c6572206973206e6f7420746865206f776e65726000830152602082019050919050565b620017578162001a71565b82525050565b620017688162001a71565b82525050565b60006200177c8284620015e7565b915081905092915050565b60006020820190506200179e600083018462001469565b92915050565b6000602082019050620017bb600083018462001458565b92915050565b60006020820190508181036000830152620017dd81846200147a565b905092915050565b60006020820190508181036000830152620018018184620014fb565b905092915050565b60006020820190508181036000830152620018258184620015a6565b905092915050565b6000602082019050818103600083015262001848816200161e565b9050919050565b600060208201905081810360008301526200186a8162001686565b9050919050565b600060208201905081810360008301526200188c81620016c8565b9050919050565b60006020820190508181036000830152620018ae816200170a565b9050919050565b6000602082019050620018cc60008301846200175d565b92915050565b6000606082019050620018e960008301866200175d565b620018f860208301856200175d565b6200190760408301846200175d565b949350505050565b6000604051905081810181811067ffffffffffffffff821117156200193357600080fd5b8060405250919050565b600067ffffffffffffffff8211156200195557600080fd5b602082029050602081019050919050565b600067ffffffffffffffff8211156200197e57600080fd5b601f19601f8301169050602081019050919050565b6000819050602082019050919050565b6000819050602082019050919050565b600081519050919050565b600081519050919050565b600081519050919050565b6000602082019050919050565b6000602082019050919050565b600082825260208201905092915050565b600082825260208201905092915050565b600082825260208201905092915050565b600082825260208201905092915050565b600081905092915050565b600062001a4a8262001a51565b9050919050565b600073ffffffffffffffffffffffffffffffffffffffff82169050919050565b6000819050919050565b600062001a888262001a8f565b9050919050565b600062001a9c8262001aa3565b9050919050565b600062001ab08262001a51565b9050919050565b82818337600083830152505050565b60005b8381101562001ae657808201518184015260208101905062001ac9565b8381111562001af6576000848401525b50505050565b6000601f19601f8301169050919050565b62001b188162001a3d565b811462001b2457600080fd5b50565b62001b328162001a71565b811462001b3e57600080fd5b5056fe608060405234801561001057600080fd5b5060006100216100d460201b60201c565b9050806000806101000a81548173ffffffffffffffffffffffffffffffffffffffff021916908373ffffffffffffffffffffffffffffffffffffffff1602179055508073ffffffffffffffffffffffffffffffffffffffff16600073ffffffffffffffffffffffffffffffffffffffff167f8be0079c531659141344cd1fd0a4f28419497f9722a3daafe3b4186f6b6457e060405160405180910390a350600060028190555060006003819055506100dc565b600033905090565b61137e806100eb6000396000f3fe608060405234801561001057600080fd5b50600436106100ea5760003560e01c80638da5cb5b1161008c578063aecaa31611610066578063aecaa31614610310578063f2fde38b14610352578063f62d188814610396578063f6ed06a414610451576100ea565b80638da5cb5b1461022d57806395d89b4114610261578063a7b08aec146102e4576100ea565b80635828b90e116100c85780635828b90e1461019757806365fa2f7f146101b55780636b6709b514610205578063715018a614610223576100ea565b806308d416d1146100ef57806322f3c5c61461010d5780632e06d40114610140575b600080fd5b6100f761051d565b6040518082815260200191505060405180910390f35b610115610523565b6040518085815260200184815260200183815260200182815260200194505050505060405180910390f35b61016c6004803603602081101561015657600080fd5b8101908080359060200190929190505050610541565b6040518085815260200184815260200183815260200182815260200194505050505060405180910390f35b61019f610571565b6040518082815260200191505060405180910390f35b6101e1600480360360208110156101cb57600080fd5b8101908080359060200190929190505050610577565b60405180848152602001838152602001828152602001935050505060405180910390f35b61020d6105ef565b6040518082815260200191505060405180910390f35b61022b6105f5565b005b61023561077b565b604051808273ffffffffffffffffffffffffffffffffffffffff16815260200191505060405180910390f35b6102696107a4565b6040518080602001828103825283818151815260200191508051906020019080838360005b838110156102a957808201518184015260208101905061028e565b50505050905090810190601f1680156102d65780820380516001836020036101000a031916815260200191505b509250505060405180910390f35b6102ec610842565b60405180848152602001838152602001828152602001935050505060405180910390f35b61033c6004803603602081101561032657600080fd5b8101908080359060200190929190505050610861565b6040518082815260200191505060405180910390f35b6103946004803603602081101561036857600080fd5b81019080803573ffffffffffffffffffffffffffffffffffffffff169060200190929190505050610a67565b005b61044f600480360360208110156103ac57600080fd5b81019080803590602001906401000000008111156103c957600080fd5b8201836020820111156103db57600080fd5b803590602001918460018302840111640100000000831117156103fd57600080fd5b91908080601f016020809104026020016040519081016040528093929190818152602001838380828437600081840152601f19601f820116905080830192505050505050509192919290505050610c72565b005b6105076004803603602081101561046757600080fd5b810190808035906020019064010000000081111561048457600080fd5b82018360208201111561049657600080fd5b803590602001918460208302840111640100000000831117156104b857600080fd5b919080806020026020016040519081016040528093929190818152602001838360200280828437600081840152601f19601f820116905080830192505050505050509192919290505050610d54565b6040518082815260200191505060405180910390f35b60025481565b60058060000154908060010154908060020154908060030154905084565b60096020528060005260406000206000915090508060000154908060010154908060020154908060030154905084565b60045481565b60008060008084141561059a57600060025411156105955760025492505b6105b8565b60025484101580156105ae57506003548411155b156105b7578392505b5b60008311156105e85760006009600085815260200190815260200160002090508060020154925080600301549150505b9193909250565b60035481565b6105fd610e90565b73ffffffffffffffffffffffffffffffffffffffff1660008054906101000a900473ffffffffffffffffffffffffffffffffffffffff1673ffffffffffffffffffffffffffffffffffffffff16146106bd576040517f08c379a00000000000000000000000000000000000000000000000000000000081526004018080602001828103825260208152602001807f4f776e61626c653a2063616c6c6572206973206e6f7420746865206f776e657281525060200191505060405180910390fd5b600073ffffffffffffffffffffffffffffffffffffffff1660008054906101000a900473ffffffffffffffffffffffffffffffffffffffff1673ffffffffffffffffffffffffffffffffffffffff167f8be0079c531659141344cd1fd0a4f28419497f9722a3daafe3b4186f6b6457e060405160405180910390a360008060006101000a81548173ffffffffffffffffffffffffffffffffffffffff021916908373ffffffffffffffffffffffffffffffffffffffff160217905550565b60008060009054906101000a900473ffffffffffffffffffffffffffffffffffffffff16905090565b60018054600181600116156101000203166002900480601f01602080910402602001604051908101604052809291908181526020018280546001816001161561010002031660029004801561083a5780601f1061080f5761010080835404028352916020019161083a565b820191906000526020600020905b81548152906001019060200180831161081d57829003601f168201915b505050505081565b6000806000600354925060056002015491506005600301549050909192565b600061086b610e90565b73ffffffffffffffffffffffffffffffffffffffff1660008054906101000a900473ffffffffffffffffffffffffffffffffffffffff1673ffffffffffffffffffffffffffffffffffffffff161461092b576040517f08c379a00000000000000000000000000000000000000000000000000000000081526004018080602001828103825260208152602001807f4f776e61626c653a2063616c6c6572206973206e6f7420746865206f776e657281525060200191505060405180910390fd5b600254821015801561093f57506003548211155b15610a5d5760006009600084815260200190815260200160002090506000816000015411156109925760006009600083600001548152602001908152602001600020905081600101548160010181905550505b6000816001015411156109c95760006009600083600101548152602001908152602001600020905081600001548160000181905550505b806001015491508260025414156109e65780600101546002819055505b8260035414156109f95760006003819055505b60096000848152602001908152602001600020600080820160009055600182016000905560028201600090556003820160009055505060006004541115610a5757610a506001600454610e9890919063ffffffff16565b6004819055505b50610a62565b600090505b919050565b610a6f610e90565b73ffffffffffffffffffffffffffffffffffffffff1660008054906101000a900473ffffffffffffffffffffffffffffffffffffffff1673ffffffffffffffffffffffffffffffffffffffff1614610b2f576040517f08c379a00000000000000000000000000000000000000000000000000000000081526004018080602001828103825260208152602001807f4f776e61626c653a2063616c6c6572206973206e6f7420746865206f776e657281525060200191505060405180910390fd5b600073ffffffffffffffffffffffffffffffffffffffff168173ffffffffffffffffffffffffffffffffffffffff161415610bb5576040517f08c379a00000000000000000000000000000000000000000000000000000000081526004018080602001828103825260268152602001806113236026913960400191505060405180910390fd5b8073ffffffffffffffffffffffffffffffffffffffff1660008054906101000a900473ffffffffffffffffffffffffffffffffffffffff1673ffffffffffffffffffffffffffffffffffffffff167f8be0079c531659141344cd1fd0a4f28419497f9722a3daafe3b4186f6b6457e060405160405180910390a3806000806101000a81548173ffffffffffffffffffffffffffffffffffffffff021916908373ffffffffffffffffffffffffffffffffffffffff16021790555050565b610c7a610e90565b73ffffffffffffffffffffffffffffffffffffffff1660008054906101000a900473ffffffffffffffffffffffffffffffffffffffff1673ffffffffffffffffffffffffffffffffffffffff1614610d3a576040517f08c379a00000000000000000000000000000000000000000000000000000000081526004018080602001828103825260208152602001807f4f776e61626c653a2063616c6c6572206973206e6f7420746865206f776e657281525060200191505060405180910390fd5b8060019080519060200190610d50929190611285565b5050565b6000610d5e610e90565b73ffffffffffffffffffffffffffffffffffffffff1660008054906101000a900473ffffffffffffffffffffffffffffffffffffffff1673ffffffffffffffffffffffffffffffffffffffff1614610e1e576040517f08c379a00000000000000000000000000000000000000000000000000000000081526004018080602001828103825260208152602001807f4f776e61626c653a2063616c6c6572206973206e6f7420746865206f776e657281525060200191505060405180910390fd5b6000825111610e2c57600080fd5b6000805b8351811015610e64576000848281518110610e4757fe5b602002602001015190508083019250508080600101915050610e30565b506000610e7b845183610ee290919063ffffffff16565b9050610e8681610f2c565b8092505050919050565b600033905090565b6000610eda83836040518060400160405280601e81526020017f536166654d6174683a207375627472616374696f6e206f766572666c6f770000815250611077565b905092915050565b6000610f2483836040518060400160405280601a81526020017f536166654d6174683a206469766973696f6e206279207a65726f000000000000815250611137565b905092915050565b60008111610fa2576040517f08c379a00000000000000000000000000000000000000000000000000000000081526004018080602001828103825260148152602001807f70726963652063616e6e6f74206265207a65726f00000000000000000000000081525060200191505060405180910390fd5b60006003541115610fd15760006009600060035481526020019081526020016000209050438160010181905550505b60035460056000018190555060006005600101819055508060056002018190555042600560030181905550600560096000438152602001908152602001600020600082015481600001556001820154816001015560028201548160020155600382015481600301559050504360038190555060006002541415611058576003546002819055505b61106e60016004546111fd90919063ffffffff16565b60048190555050565b6000838311158290611124576040517f08c379a00000000000000000000000000000000000000000000000000000000081526004018080602001828103825283818151815260200191508051906020019080838360005b838110156110e95780820151818401526020810190506110ce565b50505050905090810190601f1680156111165780820380516001836020036101000a031916815260200191505b509250505060405180910390fd5b5060008385039050809150509392505050565b600080831182906111e3576040517f08c379a00000000000000000000000000000000000000000000000000000000081526004018080602001828103825283818151815260200191508051906020019080838360005b838110156111a857808201518184015260208101905061118d565b50505050905090810190601f1680156111d55780820380516001836020036101000a031916815260200191505b509250505060405180910390fd5b5060008385816111ef57fe5b049050809150509392505050565b60008082840190508381101561127b576040517f08c379a000000000000000000000000000000000000000000000000000000000815260040180806020018281038252601b8152602001807f536166654d6174683a206164646974696f6e206f766572666c6f77000000000081525060200191505060405180910390fd5b8091505092915050565b828054600181600116156101000203166002900490600052602060002090601f016020900481019282601f106112c657805160ff19168380011785556112f4565b828001600101855582156112f4579182015b828111156112f35782518255916020019190600101906112d8565b5b5090506113019190611305565b5090565b5b8082111561131e576000816000905550600101611306565b509056fe4f776e61626c653a206e6577206f776e657220697320746865207a65726f2061646472657373a26469706673582212204476ad9dabe72621673e21c824d61ec76984fa2727c433c3796730437f7949b164736f6c634300060c0033a26469706673582212201900b0ef888cdedfa362d508e69b65480c72a39a3dbe0a6cc6560179eb21b40164736f6c634300060c0033",
  "immutableReferences": {},
  "source": "// SPDX-License-Identifier: MIT\n\npragma solidity 0.6.12;\npragma experimental ABIEncoderV2;\n\nimport \"../openzeppelin/contracts/math/SafeMath.sol\";\nimport \"../openzeppelin/contracts/access/Ownable.sol\";\nimport \"./Quote.sol\";\n\ncontract QuoteFactory is Ownable {\n    using SafeMath for uint256;\n\n    event AddQuote(address indexed quoteAddr);\n    event AddPrice(string indexed symbol, uint256 indexed newPrice);\n    event DelPrice(string indexed symbol, uint256 indexed blockIndex);\n\n    mapping (string => address) private allQuotePool;// <btc/usdt,quoteAddr>\n    string[] private allSymbol;\n\n    // \n    function addQuote(string memory _symbol) public onlyOwner returns (address quoteAddr) {\n        require(allQuotePool[_symbol] == address(0), 'addQuote: Quote_EXISTS');\n        bytes memory bytecode = type(Quote).creationCode;\n        bytes32 salt = keccak256(abi.encodePacked(_symbol));\n        assembly {\n            quoteAddr := create2(0, add(bytecode, 32), mload(bytecode), salt)\n        }\n        Quote(quoteAddr).initialize(_symbol);\n        Quote(quoteAddr).transferOwnership(msg.sender);\n        allQuotePool[_symbol] = quoteAddr;        \n        allSymbol.push(_symbol);\n        emit AddQuote(quoteAddr);\n    }\n\n    // \n    function addPrice(string memory _symbol,uint256[] memory price) public onlyOwner {\n        address quoteAddr = getAddr(_symbol);\n        uint256 newprice = Quote(quoteAddr).addPrice(price);\n        emit AddPrice(_symbol, newprice);\n    } \n\n    // \n    function delPrice(string memory _symbol,uint256 blockIndex) public onlyOwner {\n        address quoteAddr = getAddr(_symbol);\n        Quote(quoteAddr).delPrice(blockIndex);\n        emit DelPrice(_symbol, blockIndex);\n    }\n\n    // \n    function getNewPrice(string memory _symbol) public view returns (uint256 blockIndex,uint256 newPrice,uint256 priceTime) {\n        address quoteAddr = getAddr(_symbol);\n        (blockIndex, newPrice, priceTime) = Quote(quoteAddr).getNewPrice();\n    }\n\n    // \n    function getLastPrice(string memory _symbol,uint256 _blockIndex) public view returns (uint256 blockIndex,uint256 newPrice,uint256 priceTime) {\n        address quoteAddr = getAddr(_symbol);\n        (blockIndex, newPrice, priceTime) = Quote(quoteAddr).getLastPrice(_blockIndex);\n    }\n\n    // \n    function getAddr(string memory _symbol) public view returns (address quoteAddr) {\n        quoteAddr = allQuotePool[_symbol];\n        require(quoteAddr != address(0), 'getAddr: Quote_NOT_EXISTS');\n    }    \n\n    function symbolLength() public view returns(uint256) {\n        return allSymbol.length;\n    }\n\n    function getSymbol(uint256 _index) public view returns(string memory) {\n        return allSymbol[_index];\n    }\n\n    function symbols() public view returns(string[] memory) {\n        return allSymbol;\n    }\n}",
  "sourcePath": "/Users/tong/Projects/drep-project/teemo-private/contracts/quote/QuoteFactory.sol",
  "compiler": {
    "name": "solc",
    "version": "0.6.12+commit.27d51765.Emscripten.clang"
  },
  "schemaVersion": "3.3.2",
  "updatedAt": "2020-12-08T11:08:18.990Z",
  "networkType": "ethereum",
  "devdoc": {
    "kind": "dev",
    "methods": {
      "owner()": {
        "details": "Returns the address of the current owner."
      },
      "renounceOwnership()": {
        "details": "Leaves the contract without owner. It will not be possible to call `onlyOwner` functions anymore. Can only be called by the current owner. NOTE: Renouncing ownership will leave the contract without an owner, thereby removing any functionality that is only available to the owner."
      },
      "transferOwnership(address)": {
        "details": "Transfers ownership of the contract to a new account (`newOwner`). Can only be called by the current owner."
      }
    },
    "version": 1
  },
  "userdoc": {
    "kind": "user",
    "methods": {},
    "version": 1
  }
}